{
  "_format": "hh-sol-artifact-1",
  "contractName": "HouseCredit",
  "sourceName": "contracts/HouseCredit.sol",
  "abi": [
    {
      "inputs": [],
      "stateMutability": "nonpayable",
      "type": "constructor"
    },
    {
      "inputs": [
        {
          "internalType": "address",
          "name": "owner",
          "type": "address"
        }
      ],
      "name": "OwnableInvalidOwner",
      "type": "error"
    },
    {
      "inputs": [
        {
          "internalType": "address",
          "name": "account",
          "type": "address"
        }
      ],
      "name": "OwnableUnauthorizedAccount",
      "type": "error"
    },
    {
      "inputs": [],
      "name": "ReentrancyGuardReentrantCall",
      "type": "error"
    },
    {
      "anonymous": false,
      "inputs": [
        {
          "indexed": true,
          "internalType": "address",
          "name": "user",
          "type": "address"
        },
        {
          "indexed": false,
          "internalType": "uint256",
          "name": "newLimit",
          "type": "uint256"
        }
      ],
      "name": "CreditLimitUpdated",
      "type": "event"
    },
    {
      "anonymous": false,
      "inputs": [
        {
          "indexed": true,
          "internalType": "address",
          "name": "user",
          "type": "address"
        }
      ],
      "name": "LoanCleared",
      "type": "event"
    },
    {
      "anonymous": false,
      "inputs": [
        {
          "indexed": true,
          "internalType": "address",
          "name": "user",
          "type": "address"
        },
        {
          "indexed": false,
          "internalType": "uint256",
          "name": "amount",
          "type": "uint256"
        }
      ],
      "name": "LoanRepaid",
      "type": "event"
    },
    {
      "anonymous": false,
      "inputs": [
        {
          "indexed": true,
          "internalType": "address",
          "name": "user",
          "type": "address"
        },
        {
          "indexed": false,
          "internalType": "uint256",
          "name": "amount",
          "type": "uint256"
        }
      ],
      "name": "LoanTaken",
      "type": "event"
    },
    {
      "anonymous": false,
      "inputs": [
        {
          "indexed": true,
          "internalType": "address",
          "name": "previousOwner",
          "type": "address"
        },
        {
          "indexed": true,
          "internalType": "address",
          "name": "newOwner",
          "type": "address"
        }
      ],
      "name": "OwnershipTransferred",
      "type": "event"
    },
    {
      "inputs": [
        {
          "internalType": "address[]",
          "name": "users",
          "type": "address[]"
        },
        {
          "internalType": "uint256[]",
          "name": "limits",
          "type": "uint256[]"
        }
      ],
      "name": "batchSetCreditLimits",
      "outputs": [],
      "stateMutability": "nonpayable",
      "type": "function"
    },
    {
      "inputs": [
        {
          "internalType": "address",
          "name": "",
          "type": "address"
        }
      ],
      "name": "creditLimit",
      "outputs": [
        {
          "internalType": "uint256",
          "name": "",
          "type": "uint256"
        }
      ],
      "stateMutability": "view",
      "type": "function"
    },
    {
      "inputs": [
        {
          "internalType": "address",
          "name": "user",
          "type": "address"
        }
      ],
      "name": "getCreditLimit",
      "outputs": [
        {
          "internalType": "uint256",
          "name": "",
          "type": "uint256"
        }
      ],
      "stateMutability": "view",
      "type": "function"
    },
    {
      "inputs": [
        {
          "internalType": "address",
          "name": "user",
          "type": "address"
        }
      ],
      "name": "getLoanStatus",
      "outputs": [
        {
          "internalType": "uint256",
          "name": "loan",
          "type": "uint256"
        },
        {
          "internalType": "uint256",
          "name": "stack",
          "type": "uint256"
        },
        {
          "internalType": "bool",
          "name": "canWithdraw",
          "type": "bool"
        }
      ],
      "stateMutability": "view",
      "type": "function"
    },
    {
      "inputs": [
        {
          "internalType": "address",
          "name": "user",
          "type": "address"
        }
      ],
      "name": "getOutstandingLoan",
      "outputs": [
        {
          "internalType": "uint256",
          "name": "",
          "type": "uint256"
        }
      ],
      "stateMutability": "view",
      "type": "function"
    },
    {
      "inputs": [
        {
          "internalType": "address",
          "name": "",
          "type": "address"
        }
      ],
      "name": "loanBalance",
      "outputs": [
        {
          "internalType": "uint256",
          "name": "",
          "type": "uint256"
        }
      ],
      "stateMutability": "view",
      "type": "function"
    },
    {
      "inputs": [
        {
          "internalType": "uint256",
          "name": "amount",
          "type": "uint256"
        }
      ],
      "name": "manualRepay",
      "outputs": [],
      "stateMutability": "payable",
      "type": "function"
    },
    {
      "inputs": [],
      "name": "owner",
      "outputs": [
        {
          "internalType": "address",
          "name": "",
          "type": "address"
        }
      ],
      "stateMutability": "view",
      "type": "function"
    },
    {
      "inputs": [],
      "name": "renounceOwnership",
      "outputs": [],
      "stateMutability": "nonpayable",
      "type": "function"
    },
    {
      "inputs": [
        {
          "internalType": "uint256",
          "name": "betAmount",
          "type": "uint256"
        }
      ],
      "name": "repayFromLoss",
      "outputs": [],
      "stateMutability": "nonpayable",
      "type": "function"
    },
    {
      "inputs": [
        {
          "internalType": "address",
          "name": "user",
          "type": "address"
        },
        {
          "internalType": "uint256",
          "name": "limit",
          "type": "uint256"
        }
      ],
      "name": "setCreditLimit",
      "outputs": [],
      "stateMutability": "nonpayable",
      "type": "function"
    },
    {
      "inputs": [
        {
          "internalType": "address",
          "name": "",
          "type": "address"
        }
      ],
      "name": "stackBalance",
      "outputs": [
        {
          "internalType": "uint256",
          "name": "",
          "type": "uint256"
        }
      ],
      "stateMutability": "view",
      "type": "function"
    },
    {
      "inputs": [
        {
          "internalType": "uint256",
          "name": "amount",
          "type": "uint256"
        }
      ],
      "name": "takeLoan",
      "outputs": [],
      "stateMutability": "nonpayable",
      "type": "function"
    },
    {
      "inputs": [
        {
          "internalType": "address",
          "name": "newOwner",
          "type": "address"
        }
      ],
      "name": "transferOwnership",
      "outputs": [],
      "stateMutability": "nonpayable",
      "type": "function"
    }
  ],
  "bytecode": "0x608060405234801561001057600080fd5b50338061003757604051631e4fbdf760e01b81526000600482015260240160405180910390fd5b6100408161006a565b5060017f9b779b17422d0df92223018b32b4d1fa46e071723d6817e2486d003becc55f00556100ba565b600080546001600160a01b038381166001600160a01b0319831681178455604051919092169283917f8be0079c531659141344cd1fd0a4f28419497f9722a3daafe3b4186f6b6457e09190a35050565b610c45806100c96000396000f3fe6080604052600436106100dd5760003560e01c80637d8978fa1161007f57806398cdabc91161005957806398cdabc9146102b05780639aae66f9146102c3578063f2fde38b146102f0578063fe0ac9211461031057600080fd5b80637d8978fa146102485780638c803fc2146102685780638da5cb5b1461028857600080fd5b80632c333e25116100bb5780632c333e25146101bb57806349d5034d146101f15780636ac5f47b14610213578063715018a61461023357600080fd5b8063112130ad146100e25780631b7adeca1461014a5780631f429f501461018e575b600080fd5b3480156100ee57600080fd5b506101286100fd366004610a28565b6001600160a01b03166000908152600260209081526040808320546003909252909120549091821590565b6040805193845260208401929092521515908201526060015b60405180910390f35b34801561015657600080fd5b50610180610165366004610a28565b6001600160a01b031660009081526002602052604090205490565b604051908152602001610141565b34801561019a57600080fd5b506101806101a9366004610a28565b60016020526000908152604090205481565b3480156101c757600080fd5b506101806101d6366004610a28565b6001600160a01b031660009081526001602052604090205490565b3480156101fd57600080fd5b5061021161020c366004610a4a565b61033d565b005b34801561021f57600080fd5b5061021161022e366004610ac0565b61039e565b34801561023f57600080fd5b506102116104f5565b34801561025457600080fd5b50610211610263366004610b2c565b610509565b34801561027457600080fd5b50610211610283366004610b2c565b610623565b34801561029457600080fd5b506000546040516001600160a01b039091168152602001610141565b6102116102be366004610b2c565b6107ab565b3480156102cf57600080fd5b506101806102de366004610a28565b60026020526000908152604090205481565b3480156102fc57600080fd5b5061021161030b366004610a28565b610908565b34801561031c57600080fd5b5061018061032b366004610a28565b60036020526000908152604090205481565b610345610943565b6001600160a01b03821660008181526001602052604090819020839055517fd659a89134780b6c2dc78cb7ad2468b7f3c587d41134933a17c82eb519f7537a906103929084815260200190565b60405180910390a25050565b6103a6610943565b8281146103f25760405162461bcd60e51b8152602060048201526015602482015274082e4e4c2f240d8cadccee8d040dad2e6dac2e8c6d605b1b60448201526064015b60405180910390fd5b60005b838110156104ee5782828281811061040f5761040f610b45565b905060200201356001600087878581811061042c5761042c610b45565b90506020020160208101906104419190610a28565b6001600160a01b0316815260208101919091526040016000205584848281811061046d5761046d610b45565b90506020020160208101906104829190610a28565b6001600160a01b03167fd659a89134780b6c2dc78cb7ad2468b7f3c587d41134933a17c82eb519f7537a8484848181106104be576104be610b45565b905060200201356040516104d491815260200190565b60405180910390a2806104e681610b71565b9150506103f5565b5050505050565b6104fd610943565b6105076000610970565b565b6105116109c0565b33600090815260026020526040902054156106095760006064610535836028610b8a565b61053f9190610ba7565b3360009081526002602052604090205490915081111561056b5750336000908152600260205260409020545b336000908152600260205260408120805483929061058a908490610bc9565b909155505060405181815233907fc200a1f31dd659e356e0f112c82558e25f49f7b0f84438691cd96f5cb3558823906020015b60405180910390a23360009081526002602052604081205490036106075760405133907f99f7a653a568aadcfdfb8a48eba7e87e24ec2a55671abba1466f33b5ce67b3f490600090a25b505b6106206001600080516020610bf083398151915255565b50565b61062b6109c0565b600081116106705760405162461bcd60e51b81526020600482015260126024820152710416d6f756e74206d757374206265203e20360741b60448201526064016103e9565b33600090815260026020526040902054156106d85760405162461bcd60e51b815260206004820152602260248201527f4578697374696e67206c6f616e206d75737420626520726570616964206669726044820152611cdd60f21b60648201526084016103e9565b3360009081526001602052604090205481111561072e5760405162461bcd60e51b8152602060048201526014602482015273115e18d959591cc818dc99591a5d081b1a5b5a5d60621b60448201526064016103e9565b33600090815260026020908152604080832084905560039091528120805483929061075a908490610bdc565b909155505060405181815233907fd5c776eab9418d89c040ffee59f2310d225f5ff682191bcee59b0413a7fd48359060200160405180910390a26106206001600080516020610bf083398151915255565b6107b36109c0565b336000908152600260205260409020546108005760405162461bcd60e51b815260206004820152600e60248201526d27379030b1ba34bb32903637b0b760911b60448201526064016103e9565b803410156108475760405162461bcd60e51b8152602060048201526014602482015273125b9cdd59999a58da595b9d081c185e5b595b9d60621b60448201526064016103e9565b3360009081526002602052604090205481908111156108725750336000908152600260205260409020545b3360009081526002602052604081208054839290610891908490610bc9565b9091555050348110156108d657336108fc6108ac8334610bc9565b6040518115909202916000818181858888f193505050501580156108d4573d6000803e3d6000fd5b505b60405181815233907fc200a1f31dd659e356e0f112c82558e25f49f7b0f84438691cd96f5cb3558823906020016105bd565b610910610943565b6001600160a01b03811661093a57604051631e4fbdf760e01b8152600060048201526024016103e9565b61062081610970565b6000546001600160a01b031633146105075760405163118cdaa760e01b81523360048201526024016103e9565b600080546001600160a01b038381166001600160a01b0319831681178455604051919092169283917f8be0079c531659141344cd1fd0a4f28419497f9722a3daafe3b4186f6b6457e09190a35050565b6109c86109dc565b6002600080516020610bf083398151915255565b600080516020610bf08339815191525460020361050757604051633ee5aeb560e01b815260040160405180910390fd5b80356001600160a01b0381168114610a2357600080fd5b919050565b600060208284031215610a3a57600080fd5b610a4382610a0c565b9392505050565b60008060408385031215610a5d57600080fd5b610a6683610a0c565b946020939093013593505050565b60008083601f840112610a8657600080fd5b50813567ffffffffffffffff811115610a9e57600080fd5b6020830191508360208260051b8501011115610ab957600080fd5b9250929050565b60008060008060408587031215610ad657600080fd5b843567ffffffffffffffff80821115610aee57600080fd5b610afa88838901610a74565b90965094506020870135915080821115610b1357600080fd5b50610b2087828801610a74565b95989497509550505050565b600060208284031215610b3e57600080fd5b5035919050565b634e487b7160e01b600052603260045260246000fd5b634e487b7160e01b600052601160045260246000fd5b600060018201610b8357610b83610b5b565b5060010190565b8082028115828204841417610ba157610ba1610b5b565b92915050565b600082610bc457634e487b7160e01b600052601260045260246000fd5b500490565b81810381811115610ba157610ba1610b5b565b80820180821115610ba157610ba1610b5b56fe9b779b17422d0df92223018b32b4d1fa46e071723d6817e2486d003becc55f00a26469706673582212200d8663526abed59e8805b0fa5f4a1ee0ffda61b871ac06945cdafe49c271ded064736f6c63430008140033",
  "linkReferences": {},
  "deployedLinkReferences": {}
}