{
  "_format": "hh-sol-artifact-1",
  "contractName": "TiggyVault",
  "sourceName": "contracts/TiggyVault.sol",
  "abi": [
    {
      "inputs": [
        {
          "internalType": "address",
          "name": "_houseCredit",
          "type": "address"
        }
      ],
      "stateMutability": "nonpayable",
      "type": "constructor"
    },
    {
      "inputs": [
        {
          "internalType": "address",
          "name": "owner",
          "type": "address"
        }
      ],
      "name": "OwnableInvalidOwner",
      "type": "error"
    },
    {
      "inputs": [
        {
          "internalType": "address",
          "name": "account",
          "type": "address"
        }
      ],
      "name": "OwnableUnauthorizedAccount",
      "type": "error"
    },
    {
      "inputs": [],
      "name": "ReentrancyGuardReentrantCall",
      "type": "error"
    },
    {
      "anonymous": false,
      "inputs": [
        {
          "indexed": true,
          "internalType": "address",
          "name": "oldWallet",
          "type": "address"
        },
        {
          "indexed": true,
          "internalType": "address",
          "name": "newWallet",
          "type": "address"
        }
      ],
      "name": "ColdWalletUpdated",
      "type": "event"
    },
    {
      "anonymous": false,
      "inputs": [
        {
          "indexed": true,
          "internalType": "address",
          "name": "user",
          "type": "address"
        },
        {
          "indexed": false,
          "internalType": "uint256",
          "name": "toVault",
          "type": "uint256"
        }
      ],
      "name": "LossAllocated",
      "type": "event"
    },
    {
      "anonymous": false,
      "inputs": [
        {
          "indexed": true,
          "internalType": "address",
          "name": "previousOwner",
          "type": "address"
        },
        {
          "indexed": true,
          "internalType": "address",
          "name": "newOwner",
          "type": "address"
        }
      ],
      "name": "OwnershipTransferred",
      "type": "event"
    },
    {
      "anonymous": false,
      "inputs": [
        {
          "indexed": false,
          "internalType": "uint256",
          "name": "amount",
          "type": "uint256"
        }
      ],
      "name": "SweptToColdWallet",
      "type": "event"
    },
    {
      "anonymous": false,
      "inputs": [
        {
          "indexed": true,
          "internalType": "address",
          "name": "from",
          "type": "address"
        },
        {
          "indexed": false,
          "internalType": "uint256",
          "name": "amount",
          "type": "uint256"
        },
        {
          "indexed": false,
          "internalType": "string",
          "name": "source",
          "type": "string"
        }
      ],
      "name": "TreasurySeeded",
      "type": "event"
    },
    {
      "anonymous": false,
      "inputs": [
        {
          "indexed": true,
          "internalType": "address",
          "name": "to",
          "type": "address"
        },
        {
          "indexed": false,
          "internalType": "uint256",
          "name": "amount",
          "type": "uint256"
        }
      ],
      "name": "Withdrawn",
      "type": "event"
    },
    {
      "inputs": [
        {
          "internalType": "address",
          "name": "user",
          "type": "address"
        },
        {
          "internalType": "uint256",
          "name": "betAmount",
          "type": "uint256"
        }
      ],
      "name": "allocateLoss",
      "outputs": [],
      "stateMutability": "nonpayable",
      "type": "function"
    },
    {
      "inputs": [
        {
          "internalType": "address",
          "name": "",
          "type": "address"
        }
      ],
      "name": "balances",
      "outputs": [
        {
          "internalType": "uint256",
          "name": "",
          "type": "uint256"
        }
      ],
      "stateMutability": "view",
      "type": "function"
    },
    {
      "inputs": [],
      "name": "coldWallet",
      "outputs": [
        {
          "internalType": "address",
          "name": "",
          "type": "address"
        }
      ],
      "stateMutability": "view",
      "type": "function"
    },
    {
      "inputs": [
        {
          "internalType": "address",
          "name": "user",
          "type": "address"
        },
        {
          "internalType": "uint256",
          "name": "amount",
          "type": "uint256"
        },
        {
          "internalType": "string",
          "name": "source",
          "type": "string"
        }
      ],
      "name": "depositFromBridge",
      "outputs": [],
      "stateMutability": "nonpayable",
      "type": "function"
    },
    {
      "inputs": [
        {
          "internalType": "uint256",
          "name": "amount",
          "type": "uint256"
        }
      ],
      "name": "fundFromColdWallet",
      "outputs": [],
      "stateMutability": "payable",
      "type": "function"
    },
    {
      "inputs": [],
      "name": "getTreasuryBalance",
      "outputs": [
        {
          "internalType": "uint256",
          "name": "",
          "type": "uint256"
        }
      ],
      "stateMutability": "view",
      "type": "function"
    },
    {
      "inputs": [
        {
          "internalType": "address",
          "name": "user",
          "type": "address"
        }
      ],
      "name": "getUserBalance",
      "outputs": [
        {
          "internalType": "uint256",
          "name": "",
          "type": "uint256"
        }
      ],
      "stateMutability": "view",
      "type": "function"
    },
    {
      "inputs": [],
      "name": "houseCredit",
      "outputs": [
        {
          "internalType": "contract HouseCredit",
          "name": "",
          "type": "address"
        }
      ],
      "stateMutability": "view",
      "type": "function"
    },
    {
      "inputs": [],
      "name": "owner",
      "outputs": [
        {
          "internalType": "address",
          "name": "",
          "type": "address"
        }
      ],
      "stateMutability": "view",
      "type": "function"
    },
    {
      "inputs": [],
      "name": "renounceOwnership",
      "outputs": [],
      "stateMutability": "nonpayable",
      "type": "function"
    },
    {
      "inputs": [
        {
          "internalType": "address",
          "name": "_coldWallet",
          "type": "address"
        }
      ],
      "name": "setColdWallet",
      "outputs": [],
      "stateMutability": "nonpayable",
      "type": "function"
    },
    {
      "inputs": [
        {
          "internalType": "address",
          "name": "_houseCredit",
          "type": "address"
        }
      ],
      "name": "setHouseCredit",
      "outputs": [],
      "stateMutability": "nonpayable",
      "type": "function"
    },
    {
      "inputs": [],
      "name": "sweepAllToCold",
      "outputs": [],
      "stateMutability": "nonpayable",
      "type": "function"
    },
    {
      "inputs": [
        {
          "internalType": "uint256",
          "name": "amount",
          "type": "uint256"
        }
      ],
      "name": "sweepToColdWallet",
      "outputs": [],
      "stateMutability": "nonpayable",
      "type": "function"
    },
    {
      "inputs": [],
      "name": "totalTreasury",
      "outputs": [
        {
          "internalType": "uint256",
          "name": "",
          "type": "uint256"
        }
      ],
      "stateMutability": "view",
      "type": "function"
    },
    {
      "inputs": [
        {
          "internalType": "address",
          "name": "newOwner",
          "type": "address"
        }
      ],
      "name": "transferOwnership",
      "outputs": [],
      "stateMutability": "nonpayable",
      "type": "function"
    },
    {
      "inputs": [
        {
          "internalType": "address",
          "name": "to",
          "type": "address"
        },
        {
          "internalType": "uint256",
          "name": "amount",
          "type": "uint256"
        }
      ],
      "name": "withdraw",
      "outputs": [],
      "stateMutability": "nonpayable",
      "type": "function"
    },
    {
      "stateMutability": "payable",
      "type": "receive"
    }
  ],
  "bytecode": "0x608060405234801561001057600080fd5b5060405161118338038061118383398101604081905261002f9161014f565b338061005657604051631e4fbdf760e01b8152600060048201526024015b60405180910390fd5b61005f816100ff565b5060017f9b779b17422d0df92223018b32b4d1fa46e071723d6817e2486d003becc55f00556001600160a01b0381166100da5760405162461bcd60e51b815260206004820152601b60248201527f496e76616c696420486f75736543726564697420616464726573730000000000604482015260640161004d565b600180546001600160a01b0319166001600160a01b039290921691909117905561017f565b600080546001600160a01b038381166001600160a01b0319831681178455604051919092169283917f8be0079c531659141344cd1fd0a4f28419497f9722a3daafe3b4186f6b6457e09190a35050565b60006020828403121561016157600080fd5b81516001600160a01b038116811461017857600080fd5b9392505050565b610ff58061018e6000396000f3fe6080604052600436106101025760003560e01c8063897534a911610095578063d738259311610064578063d7382593146102c7578063dfb7654e146102e7578063f041a12e14610307578063f2fde38b1461031a578063f3fef3a31461033a57600080fd5b8063897534a9146102605780638da5cb5b146102765780639b5655dc146102945780639dbcf7b4146102a757600080fd5b806366b98647116100d157806366b98647146101d35780636be13c92146101f3578063715018a61461022b57806384521dd31461024057600080fd5b806306087e5b1461012657806327e235e31461014857806332b8745514610188578063477348921461019d57600080fd5b366101215734600460008282546101199190610dbe565b925050819055005b600080fd5b34801561013257600080fd5b50610146610141366004610df3565b61035a565b005b34801561015457600080fd5b50610175610163366004610df3565b60036020526000908152604090205481565b6040519081526020015b60405180910390f35b34801561019457600080fd5b50610146610405565b3480156101a957600080fd5b506101756101b8366004610df3565b6001600160a01b031660009081526003602052604090205490565b3480156101df57600080fd5b506101466101ee366004610df3565b610531565b3480156101ff57600080fd5b50600254610213906001600160a01b031681565b6040516001600160a01b03909116815260200161017f565b34801561023757600080fd5b506101466105a7565b34801561024c57600080fd5b5061014661025b366004610e15565b6105b9565b34801561026c57600080fd5b5061017560045481565b34801561028257600080fd5b506000546001600160a01b0316610213565b3480156102a057600080fd5b5047610175565b3480156102b357600080fd5b506101466102c2366004610e9c565b6106a7565b3480156102d357600080fd5b506101466102e2366004610ec6565b6107ef565b3480156102f357600080fd5b50600154610213906001600160a01b031681565b610146610315366004610ec6565b61093f565b34801561032657600080fd5b50610146610335366004610df3565b610a19565b34801561034657600080fd5b50610146610355366004610e9c565b610a54565b610362610cdf565b6001600160a01b0381166103b35760405162461bcd60e51b8152602060048201526013602482015272125b9d985b1a590818dbdb19081dd85b1b195d606a1b60448201526064015b60405180910390fd5b600280546001600160a01b038381166001600160a01b0319831681179093556040519116919082907fa76fb38e9d9db64d1d2da020f9885ac6523b1661f38269ec3d7dfad366388aaa90600090a35050565b61040d610cdf565b610415610d0c565b6002546001600160a01b03166104635760405162461bcd60e51b815260206004820152601360248201527210dbdb19081dd85b1b195d081b9bdd081cd95d606a1b60448201526064016103aa565b47806104a45760405162461bcd60e51b815260206004820152601060248201526f04e6f7468696e6720746f2073776565760841b60448201526064016103aa565b600060048190556002546040516001600160a01b039091169183156108fc02918491818181858888f193505050501580156104e3573d6000803e3d6000fd5b506040518181527fe416d65caa44d6a4b272ed43985cab886d4c78392a9a920c5d9d8b3f1c9cf7ba9060200160405180910390a15061052f6001600080516020610fa083398151915255565b565b610539610cdf565b6001600160a01b0381166105855760405162461bcd60e51b8152602060048201526013602482015272125b9d985b1a5908121bdd5cd950dc99591a5d606a1b60448201526064016103aa565b600180546001600160a01b0319166001600160a01b0392909216919091179055565b6105af610cdf565b61052f6000610d28565b6105c1610d0c565b600083116106065760405162461bcd60e51b81526020600482015260126024820152710416d6f756e74206d757374206265203e20360741b60448201526064016103aa565b6001600160a01b0384166000908152600360205260408120805485929061062e908490610dbe565b9250508190555082600460008282546106479190610dbe565b909155505060405133907feadd5d4f02834b58d159afa70e9df9a8a468c57d00411cd82aff845f9de6c7d59061068290869086908690610edf565b60405180910390a26106a16001600080516020610fa083398151915255565b50505050565b6106af610d0c565b600081116106f45760405162461bcd60e51b8152602060048201526012602482015271125b9d985b1a590818995d08185b5bdd5b9d60721b60448201526064016103aa565b60006064610703836019610f15565b61070d9190610f2c565b905080600460008282546107219190610dbe565b90915550506001546001600160a01b03161561079057600154604051633ec4bc7d60e11b8152600481018490526001600160a01b0390911690637d8978fa90602401600060405180830381600087803b15801561077d57600080fd5b505af192505050801561078e575060015b505b826001600160a01b03167f08ec375fdd3a873cf94314796eab7b6d29cf585813fc8e7b04497a4346641ae6826040516107cb91815260200190565b60405180910390a2506107eb6001600080516020610fa083398151915255565b5050565b6107f7610cdf565b6107ff610d0c565b6002546001600160a01b031661084d5760405162461bcd60e51b815260206004820152601360248201527210dbdb19081dd85b1b195d081b9bdd081cd95d606a1b60448201526064016103aa565b60008111801561085d5750478111155b6108a05760405162461bcd60e51b8152602060048201526014602482015273125b9d985b1a59081cddd9595c08185b5bdd5b9d60621b60448201526064016103aa565b80600460008282546108b29190610f4e565b90915550506002546040516001600160a01b039091169082156108fc029083906000818181858888f193505050501580156108f1573d6000803e3d6000fd5b506040518181527fe416d65caa44d6a4b272ed43985cab886d4c78392a9a920c5d9d8b3f1c9cf7ba9060200160405180910390a161093c6001600080516020610fa083398151915255565b50565b610947610cdf565b61094f610d0c565b80341461098d5760405162461bcd60e51b815260206004820152600c60248201526b08aa89040dad2e6dac2e8c6d60a31b60448201526064016103aa565b806004600082825461099f9190610dbe565b909155505060405133907feadd5d4f02834b58d159afa70e9df9a8a468c57d00411cd82aff845f9de6c7d5906109fa90848152604060208201819052600a908201526910dbdb1915d85b1b195d60b21b606082015260800190565b60405180910390a261093c6001600080516020610fa083398151915255565b610a21610cdf565b6001600160a01b038116610a4b57604051631e4fbdf760e01b8152600060048201526024016103aa565b61093c81610d28565b610a5c610d0c565b6001600160a01b038216610aa65760405162461bcd60e51b8152602060048201526011602482015270125b9d985b1a59081c9958da5c1a595b9d607a1b60448201526064016103aa565b60008111610aeb5760405162461bcd60e51b81526020600482015260126024820152710416d6f756e74206d757374206265203e20360741b60448201526064016103aa565b60015460405163112130ad60e01b815233600482015260009182916001600160a01b039091169063112130ad90602401606060405180830381865afa158015610b38573d6000803e3d6000fd5b505050506040513d601f19601f82011682018060405250810190610b5c9190610f61565b925050915080610bb95760405162461bcd60e51b815260206004820152602260248201527f4c6f616e206e6f7420636c6561726564202d2063616e6e6f7420776974686472604482015261617760f01b60648201526084016103aa565b33600090815260036020526040902054831115610c0f5760405162461bcd60e51b8152602060048201526014602482015273496e73756666696369656e742062616c616e636560601b60448201526064016103aa565b3360009081526003602052604081208054859290610c2e908490610f4e565b925050819055508260046000828254610c479190610f4e565b90915550506040516001600160a01b0385169084156108fc029085906000818181858888f19350505050158015610c82573d6000803e3d6000fd5b50836001600160a01b03167f7084f5476618d8e60b11ef0d7d3f06914655adb8793e28ff7f018d4c76d505d584604051610cbe91815260200190565b60405180910390a250506107eb6001600080516020610fa083398151915255565b6000546001600160a01b0316331461052f5760405163118cdaa760e01b81523360048201526024016103aa565b610d14610d78565b6002600080516020610fa083398151915255565b600080546001600160a01b038381166001600160a01b0319831681178455604051919092169283917f8be0079c531659141344cd1fd0a4f28419497f9722a3daafe3b4186f6b6457e09190a35050565b600080516020610fa08339815191525460020361052f57604051633ee5aeb560e01b815260040160405180910390fd5b634e487b7160e01b600052601160045260246000fd5b80820180821115610dd157610dd1610da8565b92915050565b80356001600160a01b0381168114610dee57600080fd5b919050565b600060208284031215610e0557600080fd5b610e0e82610dd7565b9392505050565b60008060008060608587031215610e2b57600080fd5b610e3485610dd7565b935060208501359250604085013567ffffffffffffffff80821115610e5857600080fd5b818701915087601f830112610e6c57600080fd5b813581811115610e7b57600080fd5b886020828501011115610e8d57600080fd5b95989497505060200194505050565b60008060408385031215610eaf57600080fd5b610eb883610dd7565b946020939093013593505050565b600060208284031215610ed857600080fd5b5035919050565b83815260406020820152816040820152818360608301376000818301606090810191909152601f909201601f1916010192915050565b8082028115828204841417610dd157610dd1610da8565b600082610f4957634e487b7160e01b600052601260045260246000fd5b500490565b81810381811115610dd157610dd1610da8565b600080600060608486031215610f7657600080fd5b835192506020840151915060408401518015158114610f9457600080fd5b80915050925092509256fe9b779b17422d0df92223018b32b4d1fa46e071723d6817e2486d003becc55f00a2646970667358221220823c459d6408ae5cf2d0c852aa28941e110754fccacb4057051e2ef9d262d6b464736f6c63430008140033",
  "linkReferences": {},
  "deployedLinkReferences": {}
}